:10000000CF93DF93CDB7DEB76C970FB6F894DEBF12
:100010000FBECDBF8AE290E02AE230E0F9012081F4
:100020002460FC01208380E090E0AAEFB3E48D839C
:100030009E83AF83B88720E030E04AE755E46D81C6
:100040007E818F8198850E94AE01DC01CB0189877A
:100050009A87AB87BC8720E030E040E85FE36985A2
:100060007A858B859C850E942C0188232CF481E065
:1000700090E09E878D873EC020E03FEF4FE757E43A
:1000800069857A858B859C850E94AA01181644F59E
:1000900020E030E040E251E46D817E818F819885DF
:1000A0000E94AE01DC01CB01BC01CD010E943001F8
:1000B000DC01CB019E878D878D859E85892B21F163
:1000C00080E991E0988B8F878F8598890197F1F768
:1000D000988B8F878D859E8501979E878D87ECCF26
:1000E00069857A858B859C850E943001DC01CB0176
:1000F0009E878D878D859E859A8B898B89899A8924
:100100000197F1F79A8B898B0E94120121E0892BCC
:1001100009F420E0222351F08BE290E02BE230E062
:10012000F90120812460FC01208309C08BE290E06A
:100130002BE230E0F90120812B7FFC01208380E05D
:1001400090E0AAEFB3E489839A83AB83BC8320E079
:1001500030E04AE755E469817A818B819C810E9475
:10016000AE01DC01CB018B8B9C8BAD8BBE8B20E079
:1001700030E040E85FE36B897C898D899E890E942D
:100180002C0188232CF481E090E0988F8F8B3FC066
:1001900020E03FEF4FE757E46B897C898D899E898A
:1001A0000E94AA0118164CF520E030E040E251E42C
:1001B00069817A818B819C810E94AE01DC01CB0137
:1001C000BC01CD010E943001DC01CB01988F8F8BE7
:1001D0008F89988D892B09F426CF80E991E09A8F39
:1001E000898F898D9A8D0197F1F79A8F898F8F89E1
:1001F000988D0197988F8F8BEBCF6B897C898D8938
:100200009E890E943001DC01CB01988F8F8B8F89F2
:10021000988D9C8F8B8F8B8D9C8D0197F1F79C8F88
:100220008B8F01CFCF93DF93CDB7DEB789E290E01C
:10023000FC018081882F90E08870992721E0892B2C
:1002400009F420E0222319F081E090E002C080E070
:1002500090E0DF91CF9108952FD008F481E00895C8
:1002600057D088F09F5790F0B92F9927B751A0F039
:10027000D1F0660F771F881F991F1AF0BA95C9F73A
:1002800012C0B13081F05ED0B1E008955BC0672F3D
:10029000782F8827B85F39F0B93FCCF386957795EA
:1002A0006795B395D9F73EF49095809570956195D3
:1002B0007F4F8F4F9F4F0895990F0008550FAA0B3E
:1002C000E0E8FEEF16161706E807F907C0F0121669
:1002D0001306E407F50798F0621B730B840B950B6C
:1002E00039F40A2661F0232B242B252B21F40895C1
:1002F0000A2609F4A140A6958FEF811D811D08955E
:1003000057FD9058440F551F59F05F3F71F04795C6
:10031000880F97FB991F61F09F3F79F087950895AB
:10032000121613061406551FF2CF4695F1DF08C0CA
:10033000161617061806991FF1CF869571056105E7
:1003400008940895E894BB2766277727862F972F70
:1003500097F90895B1DF08F48FEF08950AD080C0AF
:1003600071D028F076D018F0952309F062C067C0EC
:10037000EACFC6DFA8F39923D9F35523C9F3950F24
:1003800050E0551FAA27EE27FF27BB27002408941B
:10039000679520F4E20FF31FB41F0A1E220F331FCC
:1003A000441FAA1F6695A9F7779530F4F30FB41F81
:1003B0000A1E121E08F46395330F441FAA1F221F42
:1003C000769599F7879520F4B40F0A1E121E631FC5
:1003D000440FAA1F221F331F8695A9F7862F712D60
:1003E000602D11249F5750408AF0E1F088234AF095
:1003F000EE0FFF1FBB1F661F771F881F91505040D5
:10040000A9F79E3F510570F014C09DCF5F3FECF3FC
:10041000983EDCF3869577956795B795F795E795C0
:100420009F5FC1F7FE2B880F911D9695879597F9D1
:10043000089597F99F6780E870E060E008959FEF66
:1004400080EC089500240A9416161706180609066B
:10045000089500240A94121613061406050608953A
:10046000092E0394000C11F4882352F0BB0F40F4C2
:10047000BF2B11F460FF04C06F5F7F4F8F4F9F4F02
:020480000895DD
:00000001FF
