:10000000CF93DF9300D01F92CDB7DEB787E60E9473
:100010002C0081E690E09B838A8319820FC089813E
:10002000882F90E09E012E5F3F4F820F931FFC01AF
:1000300080810E94500089818F5F89838981882F08
:1000400090E09E012E5F3F4F820F931FFC01808145
:10005000882329F71982E2CFCF93DF931F92CDB780
:10006000DEB7898385EC90E02981222F30E0232FB1
:10007000330F330BFC01208384EC90E02981FC01D9
:10008000208382EC90E026E0FC01208381EC90E06C
:1000900028E0FC01208300000F90DF91CF910895AC
:1000A000CF93DF931F92CDB7DEB78983000080EC3A
:1000B00090E0FC018081882F90E080729927892B45
:1000C000B1F386EC90E02981FC01208300000F90C1
:0600D000DF91CF910895BD
:00000001FF
